:100000000C94F7020C9459030C943E030C943E0399
:100010000C943E030C943E030C943E030C943E035C
:100020000C943E030C943E030C943E030C943E034C
:100030000C943E030C943E030C9443200C943E031A
:100040000C943E030C943E030C943E030C943E032C
:100050000C943E030C943E030C943E030C943E031C
:100060000C943E030C943E03B610B910C110C61098
:10007000CB10D010D510DA10DF10E410E910EE101C
:10008000F010F310F610F910FC10FF10011106111A
:100090000D160D163F163F168C16AA1602180218DA
:1000A000EC16811792179217F21702180218FB1715
:1000B000881888189A189A1891189A189A189A18DD
:1000C0008818881896189A189A189618165C1E00A0
:1000D0001F0020002100220023002400250026000C
:1000E00027002D002E002A002B0014001A00080003
:1000F000150017001C0018000C00120013002F0040
:1001000030002A00390004001600070009000A0028
:100110000B000D000E000F003300340031002800EA
:10012000E10000001D001B00060019000500110081
:100130001000360037003800E500E500E000E3007D
:10014000E2000000000000002C00000000000000A1
:10015000E60001510251E40035003A003B003C004A
:100160003D003E003F00400041004200430044008B
:1001700045000100010001005200010001000100E2
:10018000010001000100010046004A004D0001008D
:100190000100500051004F0001000100010001006A
:1001A000010001004B004E000100010001000000B1
:1001B0000100010001000100010001000100010037
:1001C00049004C0001000100A900AA00A80000009D
:1001D000000000000100000000000000010001001C
:1001E0000100010001000100010001000100010007
:1001F00001000100C25CCB5CCC5CCA5CC95C010044
:1002000001000100010001000100CD5CCE5CCF5C6B
:10021000D05CD25CD35CD45C010001000100010021
:10022000010001000100C35CC45CC55CC65CC75C26
:10023000C85C010001000100010000000100010094
:1002400001000100010001000100010001000100A6
:100250000100010001000100010000000000000099
:100260000100000000000000010001000100010089
:1002700000047F3F1F643214643214783C1E1E1445
:100280000A052223252628292A2C2D2F3032333502
:1002900036383A3B3D3E4042434547494A4C4E5032
:1002A00051535557595A5C5E6062646668696B6D5C
:1002B0006F71737577797B7D7F81838587898A8C60
:1002C0008E90929496989A9C9E9FA1A3A5A7A8AA67
:1002D000ACAEAFB1B3B4B6B8B9BBBCBEBFC1C2C39C
:1002E000C5C6C7C9CACBCCCDCED0D1D2D2D3D4D536
:1002F000D6D7D7D8D9D9DADADBDBDBDCDCDCDCDC5F
:10030000DDDDDDDDDCDCDCDCDCDBDBDBDADAD9D936
:10031000D8D7D7D6D5D4D3D2D2D1D0CECDCCCBCAC4
:10032000C9C7C6C5C3C2C1BFBEBCBBB9B8B6B4B3EA
:10033000B1AFAEACAAA8A7A5A3A19F9E9C9A989680
:100340009492908E8C8A89878583817F7D7B797753
:100350007573716F6D6B6968666462605E5C5A5933
:1003600057555351504E4C4A4947454342403E3DF4
:100370003B3A3836353332302F2D2C2A2928262582
:100380002322FFAA7F5540001F011E021D031C04EB
:100390001B051A06190718081709160A150B140C5D
:1003A000130D120E110F10000101010101010101D5
:1003B0000102020202020202020203030303030318
:1003C00003030404040404040405050505050606E6
:1003D00006060607070707070808080809090909A4
:1003E0000A0A0A0B0B0B0C0C0C0D0D0D0E0E0E0F4A
:1003F0000F0F1010111111121213131414151516DA
:10040000161717181819191A1A1B1B1C1D1D1E1E4A
:100410001F2020212222232424252626272829299B
:100420002A2B2C2D2D2E2F303132323334353637C6
:1004300038393A3B3C3D3E3F4041424344454647C4
:1004400048494A4C4D4E4F50515354555658595A9D
:100450005B5D5E5F616264656668696B6C6D6F7041
:1004600072737577787A7B7D7E8082838587888AB0
:100470008C8E8F91939596989A9C9EA0A2A3A5A7E7
:10048000A9ABADAFB1B3B5B7BABCBEC0C2C4C6C9E3
:10049000CBCDCFD1D4D6D8DBDDDFE2E4E7E9EBEE9C
:1004A000F0F3F5F8FAFDFF09023B0002010080C8F5
:1004B00009040000010301010009210101000122DA
:1004C0004000070581030800010904010001030041
:1004D00000000921010100012281000705830308B2
:1004E000000105010902A10185020901A100050918
:1004F0001901290515002501950575018102950150
:10050000750381030501093009311581257F9502A5
:100510007508810609381581257F950175088106C2
:10052000050C0A38021581257F950175088106C0E2
:10053000C005010980A101850319012AB700150131
:1005400026B700950175108100C0050C0901A101B5
:10055000850419012AA002150126A0029501751033
:100560008100C005010906A101050719E029E71569
:100570000025019508750181029501750881030523
:1005800007190029FF150026FF0095067508810050
:100590000508190129059505750191029501750355
:1005A0009103C0120110010000000868894847014A
:1005B0000001020301040330001003470069006ECC
:1005C000006700680061006D002003590069006148
:1005D000006E006300610072002D0044006500732E
:1005E00000690067006E0073000403090400112411
:1005F0001FBECFEFD8E0DEBFCDBF04B603FE27C0DD
:100600008091C6039091C703A091C803B091C9031C
:100610008730904BA740B04BD1F41092C603109294
:10062000C7031092C8031092C90314BE84B7877F12
:1006300084BF0FB6F894A89580916000886180937C
:100640006000109260000FBEE0E0F8E3099511E051
:10065000A0E0B1E0E4EDFCE402C005900D92A03C06
:10066000B107D9F723E0A0ECB1E001C01D92A63C90
:10067000B207E1F70E943A230C9468260C9400001C
:10068000A82FB92F80E090E041E050EA609530E07B
:1006900009C02D9182279795879510F0842795277B
:1006A000305EC8F36F5FA8F30895EADF8D939D93E2
:1006B0000895CF93CFB7CF93DF93C3954B9BE9F7C3
:1006C0004B9B0BC04B9B09C04B9B07C04B9B05C072
:1006D0004B9B03C04B9B01C08BC06F93C0919D038C
:1006E000DD27CC55DC4F2F9365E54B9B03C02F9145
:1006F0006F91E6CF0F931F934F9320E040E15F93FC
:1007000009B10C7003FB27F93F9350E03BE039C07F
:100710001C7040642F77012F5F5F1EC0406819B1C5
:100720001C702F7752501FC0406409B12F770C7096
:10073000D1F15F5F00C023C0406219B12F771C70F8
:1007400091F15F5F00C025C00C701027515012F46A
:100750005D5F0000115027952C3F19B1C8F61C7041
:100760000127015027952C3FC8F64227499309B12C
:100770000C7010274F73115027952C3FA8F6469503
:10078000469519B11C7079F00127015027952C3F2F
:1007900098F66B5A60F3315009B1B0F600C011E021
:1007A0001CBB002719C03B503195C31BD04011E042
:1007B0001CBB0881033C09F10B34F9F020919B0329
:1007C0001981110F1213EDCF4A81441F093651F1DF
:1007D0000D3211F0013E29F70093A2033F915F9182
:1007E0004F911F910F912F916F91CCB3C0FD65CFA9
:1007F000DF91CF91CFBFCF9118952091A2032223F3
:1008000069F31091A0031123E9F53430EAF1309334
:10081000A00320939C0310919D033BE0311B309378
:100820009D0332C00091A003013064F50AE54F70CA
:1008300049F43091250134FD28C000932501C4E816
:10084000D3E027C0433049F030918F0334FD1DC001
:1008500000938F03C0E9D3E01CC03091BA0334FD8C
:1008600014C00093BA03CBEBD3E013C0052710E00C
:1008700000C000000BB91AC0052710E0221F1DC0E0
:1008800010E021C04AE502C032ED432FC4E1D0E0C0
:1008900032E01AB11C605B9A0BB11AB95CE020E837
:1008A00065E320FF05270BB9279517951C3FF0F648
:1008B0006695B8F7B1F720FF05270BB9279517956F
:1008C0001C3FD0F62795179517FF052700001C3F02
:1008D0000BB9B0F629913A9519F7037F1091A1034E
:1008E000110FC651D0400BB911F010939B0311E0CA
:1008F0001CBB08601AB1137F402F437F54E05A9508
:10090000F1F70BB91AB94BB969CF08950C94850466
:100910000C948504E82FF0E0EE0FFF1FE054FE4F2B
:1009200080819181089508950F931F93CF93DF9352
:100930001F92CDB7DEB70E941D06A4E3B1E049E3E4
:1009400051E061E070E08D91E82FE295EF70F0E00A
:1009500021A18F708B0102C0000F111F8A95E2F751
:10096000C8018095922F982391A392A1892382A3F5
:100970004A175B0741F787E6898304E110E021E02D
:1009800030E0AE014F5F5F4F60E080E40E94F4060C
:1009900021E030E0AE014F5F5F4F66E080E40E94EF
:1009A000F406A6E2B1E08FEF61E070E08F5F119690
:1009B0008D30B1F08B30D0F79C91E92FE295EF703C
:1009C000F0E041A19F709B0101C0220F9A95EAF7C8
:1009D000922F9095942391A392A1292B22A3E6CF45
:1009E000EAECF1E0A0ECB1E0119211921D921D929F
:1009F00011E0E43DF107C1F785E00E94680A0E941A
:100A0000EE070F90DF91CF911F910F9108953F92C4
:100A10004F925F926F927F928F929F92AF92BF920E
:100A2000CF92DF92EF92FF920F931F93CF93DF93BA
:100A300000D01F92CDB7DEB794E3492E91E0592E36
:100A40002AECC22E21E0D22E312CAA24A394B12C60
:100A5000DB82CA82F6016080718011821082F2010D
:100A60008081E82FE295EF70F0E021A18F70A50161
:100A700002C0440F551F8A95E2F7CA01922F982BA6
:100A800091A392A18095892382A350EA5A95F1F708
:100A900086E2882E81E0982EE12CF12C87E0E81682
:100AA000B1F18E1598F0EE2029F192E0E9124BC0D9
:100AB00004E110E021E030E0AE014F5F5F4F69E0FC
:100AC00080E40E942107898180744CC0ECE0EE161E
:100AD00061F1FDE0EF1237C004E110E021E030E009
:100AE000AE014F5F5F4F69E080E40E94210789817A
:100AF000827038C004E110E021E030E0AE014F5FC9
:100B00005F4F69E080E40E94210789812AC004E1E7
:100B100010E021E030E0AE014F5F5F4F69E080E41C
:100B20000E942107898180721DC004E110E021E04C
:100B300030E0AE014F5F5F4F69E080E40E94210723
:100B4000898184700FC0F4012081E22FE295EF705B
:100B5000F0E080A190E02F7002C0959587952A95CE
:100B6000E2F781708983F6012081318189818111C9
:100B700008C0C5010E2C02C0880F991F0A94E2F725
:100B800002C080E090E0822B932BF601918380835A
:100B9000FFEFEF1AFF0A4FEF841A940A5EE0E516A2
:100BA000F10409F07BCFF20181912F01E82FE2954A
:100BB000EF70F0E021A18F70A50102C0440F551F16
:100BC0008A95E2F7CA01942F9095922391A392A15E
:100BD000892B82A352E0C50ED11C81E0EA81FB8102
:100BE000208131812615370509F480E0382A44ED4B
:100BF00051E04C155D0509F02BCF232D45E060EC4D
:100C000071E08AEC91E00E94690A0E94F807832D46
:100C10000F900F900F90DF91CF911F910F91FF9048
:100C2000EF90DF90CF90BF90AF909F908F907F908C
:100C30006F905F904F903F9008951092B9008CE0B4
:100C40008093B8000895EF92FF920F931F93CF9374
:100C5000DF93182FEB011092BC0084EA8093BC0054
:100C60000E940D207C018091BC0087FD0EC0CF3F0B
:100C70008FEFD807C1F30E940D208E199F098C17A2
:100C80009D0788F38EEF9FEF2EC08091B900887F7B
:100C9000883041F08091B900887F803119F08FEF62
:100CA0009FEF21C01093BB0084E88093BC000E949A
:100CB0000D208C018091BC0087FD0CC0CF3F8FEFD1
:100CC000D807C1F30E940D20801B910B8C179D0744
:100CD00088F3D8CF8091B900887F883111F08034B3
:100CE000F1F680E090E0DF91CF911F910F91FF909E
:100CF000EF9008950F931F93CF93DF93EB018093B1
:100D0000BB0084E88093BC000E940D208C01809180
:100D1000BC0087FD0EC0CF3F8FEFD807C1F30E9404
:100D20000D20801B910B8C179D0788F38EEF9FEF92
:100D30000CC02091B900287F81E090E0283211F4A6
:100D400080E090E0919581959109DF91CF911F917D
:100D50000F9108950F931F93CF93DF93EC0184ECD1
:100D60008093BC000E940D208C018091BC0087FD07
:100D70000EC0CF3F8FEFD807C1F30E940D20801B1C
:100D8000910B8C179D0788F38EEF9FEF03C0809126
:100D9000BB0090E0DF91CF911F910F9108950F93C9
:100DA0001F93CF93DF93EC0184E88093BC000E94F3
:100DB0000D208C018091BC0087FD0EC0CF3F8FEFCE
:100DC000D807C1F30E940D20801B910B8C179D0743
:100DD00088F38EEF9FEF03C08091BB0090E0DF911E
:100DE000CF911F910F910895CF92DF92EF92FF92D2
:100DF0000F931F93CF93DF93C62F6A017901B80138
:100E00000E94230697FD11C0B8018C2F0E947A061C
:100E1000E601EC0CFD1CCE15DF0539F097FD05C091
:100E2000B80189910E947A06F6CF24E92093BC008C
:100E3000DF91CF911F910F91FF90EF90DF90CF90B6
:100E40000895CF92DF92EF92FF920F931F93CF936B
:100E5000DF93D82EC62E7A01E901B8010E9423063D
:100E600097FD2AC0B8018C2D0E947A0697FD24C0F8
:100E7000B8018D2D81600E9423066701219796019C
:100E80002E193F092C173D0768F497FD15C0C801BE
:100E90000E94AA0697FD02C0F6018083FFEFCF1AD9
:100EA000DF0AEDCF97FD08C0C8010E94CF0697FD6D
:100EB00003C0CE0DDF1D888324E92093BC001816E3
:100EC000190614F480E090E0DF91CF911F910F910B
:100ED000FF90EF90DF90CF9008950F931F9380E1E4
:100EE0008093160304E110E021E030E046E153E096
:100EF00069E080E40E94F4061F910F910C9486042F
:100F00000F931F93CF93C82F81FF02C088E101C0C8
:100F100080E18093160304E110E021E030E046E137
:100F200053E069E080E40E94F4068C2FCF911F917A
:100F30000F910C94FA0781E0089581E008950C94D4
:100F40009D071F93CF93DF9300D000D01F92CDB7A2
:100F5000DEB749835A836B832091FA0189819A8194
:100F6000211112C0662349F00E94D81D182F682F46
:100F700089819A810E94811D03C00E94AC1D182F97
:100F800069817A81812F04C00E94D81D69817A818C
:100F90000F900F900F900F900F90DF91CF911F91B6
:100FA0000C945E08FC0140815181628173818481CF
:100FB0000C94A1070E9407058FE39CE90197F1F7C4
:100FC00000C000000E94070580E00E948A0480FFA4
:100FD00004C00E940A1F0C94692008950E94DA0739
:100FE0000E94101F811102C00E94B01F0C946D0757
:100FF0000C948804089581E008950C94FB07CF9326
:10100000C82F0E9480078C2F0E94FD07CF91089562
:1010100008950E9476180E9408082FEF84E39CE050
:10102000215080409040E1F700C000000C946920FE
:101030000F931F93CF93DF93EC010E94D2078C0193
:10104000BE010E949F07882379F1BE01C8010E945A
:10105000B911882349F1BE01C8010E94FA11882301
:1010600019F1BE01C8010E9425138823E9F0BE01D1
:10107000C8010E949F108823B9F08A81882369F0F3
:1010800001158CE5180731F00E3D1C4531F40E9426
:10109000B01F0AC00E94090807C0CE01DF91CF919E
:1010A0001F910F910C949B0780E0DF91CF911F91CE
:1010B0000F91089580E090E00895089526E4829FBE
:1010C000C0011124FC012EE0729FE00DF11D1124DE
:1010D000E60FF11DEE0FFF1FE453FF4F8591949132
:1010E0000895880F991FFC01E059FD4F8591949157
:1010F0000895CF93DF930E945E080E949109EC014E
:101100008115904508F041C0C11580E4D80708F06A
:10111000D1C0C83ED10510F5C03ED10508F0FDC0D4
:10112000C83AD10578F4C53AD10508F0A2C0C1305B
:10113000D10509F4F2C008F4EEC0C430D10508F0BE
:10114000ECC0E9C0CF3BD10508F49BC0C03CD10541
:1011500008F4E1C0CE01805C91099EC0C11590E207
:10116000D90758F4C11521E0D20708F0D6C0C03F16
:10117000D10508F4D0C0D065D0C0C11580E3D80730
:1011800008F08EC0CE019F7087C0C11595E5D907C4
:1011900008F043C0C11524E5D20708F0A2C0C1156C
:1011A00082E5D80708F5C11591E5D90708F085C093
:1011B000CE0174E0969587957A95E1F783709C2F20
:1011C000937021E030E002C0220F331F9A95E2F7BE
:1011D0003C68382BCF70C695C69580E2C89FE00169
:1011E0001124C22BD32B99C09E01237033278C2F3F
:1011F00086958695C115D34508F064C0C1E0D0E05E
:1012000002C0CC0FDD1F2A95E2F720E2829FC001C9
:101210001124C82BD92BDC6880C0C11529E5D20761
:10122000A0F4C11588E5D80708F060C0C11596E59F
:10123000D90708F070C08C2F0E94250A8F71C82F23
:10124000D0E0DC2FCC27D06268C0C1152AE5D207D8
:1012500008F451C0CE0190568115904208F05BC051
:101260008D2F8F710E94250ADD27D0628F71D82BB8
:1012700054C0C55AD0E0C959DE4FC881D0E0D0640F
:101280004CC0C85AD0E0CC0FDD1FC75CDE4F0990C0
:10129000D881C02DD46441C00E947108EC013DC0CA
:1012A000CE019927D3FF03C0EC01D86C36C0EC0106
:1012B000D06C33C0DF70D06A30C0DC2FCC27C16F58
:1012C000D06A2BC0C1E0D0E002C0CC0FDD1F2A9550
:1012D000E2F720E2829FC0011124C82BD92BDA68E3
:1012E0001CC0DC2FCC27C46FD06A17C0DC2FCC27E2
:1012F000C06FD06A12C08C2F8F700E94250A94E0B4
:10130000D695C7959A95E1F7CF70D0E0DC2FCC2722
:10131000D069C82B02C0C0E0D0E0CE01DF91CF91F0
:1013200008958238910569F1B0F48133910509F48B
:101330006DC048F48932910509F463C08A32910581
:1013400009F469C008958533910509F455C08933BE
:101350009105B9F00895833E910569F138F4803E16
:101360009105B1F0823E910509F10895863E9105FF
:10137000A9F1873E9105B9F1843E910509F064C059
:1013800023C02091820320FD4FC021FD4DC0089550
:101390008091820380FD44C08091830380FF44C01C
:1013A0008091820384FD42C083EE4DC08091820310
:1013B00082FF38C0F5CF8091820382FD33C08091D7
:1013C000830380FD31C0ECCF8091830381FF32C065
:1013D0008091820384FD2AC087EE35C0809182030C
:1013E00083FF26C0F5CF8091820383FD21C08091C9
:1013F000830381FD1FC0ECCF8091820385FD1CC05B
:101400001DC08091820385FD19C016C080918203A2
:1014100086FD16C017C08091820386FD13C010C0E0
:1014200089E311C082EE0FC080EE0DC080E00BC0DA
:1014300086EE09C084EE07C089E205C085E303C0DB
:101440008AE201C081E390E008959091820392FFC7
:101450000DC0282F2871283019F4877F846006C0BA
:10146000282F2471243011F48B7F886093FF0DC0E6
:10147000282F2871283119F4877E846106C0282F0F
:101480002471243111F48B7E88612091830320FF25
:101490000DC0382F3871383019F4877F816006C04D
:1014A000382F3171313011F48E7F886021FF0DC0EB
:1014B000282F2871283119F4877E816106C0282FD2
:1014C0002171213111F48E7E886194FD877E08950B
:1014D0000895FF920F931F93CF93DF93F82E092F58
:1014E000162FD72FC42F222349F081E08093D601F5
:1014F0000E940D209093D5018093D4018091D60154
:101500008823D9F08091D4019091D5010E941920AF
:10151000069798F0EF2DF02FA12FBD2F80E090E0DF
:101520004C2F50E08417950734F4219131912D937D
:101530003D930196F7CF1092D601DF91CF911F9185
:101540000F91FF900895EF92FF920F931F93CF9307
:10155000DF93F62E472FE82FF0E0711106C0E95512
:10156000FC4F6491762F862F72C0272F30E0E9550B
:10157000FC4FE4910E2F10E056E0659FC00111244E
:10158000CFEFD0E0BE010E94E5255BEA5603C00123
:10159000579F900D11248F0D911D8F0D911D982F28
:1015A000990F890F7E01E21AF30AE09ED001E19EB5
:1015B000B00DF09EB00D1124489FA0011124452FBD
:1015C00055277E01E41AF50AE09EA001E19E500D28
:1015D000F09E500D11247E01E81AF108E29EC00130
:1015E000E39E900DF29E900D1124892F9927C81B20
:1015F000D90BC09FC001C19F900DD09F900D1124A9
:101600006230710591F048F461157105E1F06130C7
:101610007105A9F48B2F752F19C06430710561F025
:1016200038F06630710579F00AC0892F7B2F0EC023
:101630008E2F7B2FE52F0AC08E2F792F02C0852F8A
:101640007E2FEB2F03C08B2F7E2FE92F6E2FDF9184
:10165000CF911F910F91FF90EF9008950895CF9330
:10166000DF93762FE901682F842F0E94A30A7983E4
:1016700068838A83DF91CF91089580911703282F83
:10168000269530E02115310519F48170826005C07E
:101690002532310524F08170886480931703089502
:1016A00088E090E00C942826CF92DF92EF92FF9290
:1016B0006B017C010E943D0BB701A60188E090E020
:1016C000FF90EF90DF90CF900C944626E7E1F3E097
:1016D00083E0808311828FEF828383831482608111
:1016E0007181828193810C94540B8091170380FF48
:1016F00002C08695089580E0089580911B03833091
:1017000018F48F5F80931B03609117037091180387
:101710008091190390911A030C94540B80911B0330
:10172000882319F0815080931B03609117037091F7
:1017300018038091190390911A030C94540BCF92C3
:10174000DF92EF920F931F93CF93DF93CDB7DEB766
:10175000C056D1090FB6F894DEBF0FBECDBF609161
:10176000040170E08091170380FF0AC0E7E8F3E00E
:10177000AE014F5F5F4F8E010F591F4FCA0114C05A
:101780008091DA0190910301891780F7E82FF0E04A
:101790009F01220F331FE20FF31FE45EFC4F118203
:1017A000108212828F5FF0CF249130E0D901AA0F0E
:1017B000BB1F2A0F3B1FD901A45EBC4FCD90DD900B
:1017C000EC90DA01CD92DD92ED92AD013196A01749
:1017D000B10751F72091DB01B3E02B9F800D911DE4
:1017E00011240E944211C05ADF4F0FB6F894DEBF99
:1017F0000FBECDBFDF91CF911F910F91EF90DF9082
:10180000CF9008959091170390FF16C09091DA0140
:1018100020910301921770F4E92FF0E0DF01AA0F85
:10182000BB1FEA0FFB1FE45EFC4F81836083428392
:101830009F5FF0CF0C949F0B0895CF93DF9300D060
:101840001F92CDB7DEB79091170390FF0AC09E019B
:101850002F5F3F4F0E942F0B4B8169818A810E942D
:10186000020C0F900F900F90DF91CF910895CF93BE
:10187000DF93EC01EC81F0E0EE57FD4F4491E7E19E
:10188000F3E0628181810E941D0C8C818F5F8C83CB
:10189000DF91CF910895CF93DF93EC01E7E1F3E07F
:1018A000438162818C810E941D0C8C818F5F8C83AF
:1018B000DF91CF9108950F931F93CF93DF9300D0C3
:1018C0001F92CDB7DEB78C018091D70181110AC07C
:1018D0009E012F5F3F4F4FEF6FEF0E942F0B8A81CA
:1018E0008093D701F8018481813051F028F0823053
:1018F00061F44091D7010AC08091D70140E007C050
:101900006091D70140E080E003C040E080E060E00B
:101910000E94020CF801848190E0019663E070E07F
:101920000E94F92584830F900F900F90DF91CF9143
:101930001F910F910895AF92BF92CF92DF92EF92D5
:10194000FF920F931F93CF93DF9300D01F92CDB7D9
:10195000DEB7182FF62E042FE22E9091170390FF7A
:101960006DC0E92FE695AE2FB0E0A659BE4F8C9121
:101970008093E3019E7F923061F49E012F5F3F4F81
:10198000812F0E942F0B4B8169818A810E94020C5A
:1019900043C0823019F400911A033EC0863019F416
:1019A0001091180339C08930D9F38931A9F5E9516B
:1019B0008E2F8170D82EE695F0E0EE57FC4FA59063
:1019C000B490C12CBB2460910201C61618F52C2DD1
:1019D00030E0A29EC001A39E900DB29E900D1124F6
:1019E00070E00E94E525812FD11002C0860F01C052
:1019F000861B9091DA01290F311DA901440F551F53
:101A0000240F351F245E3C4F402F6F2D0E942F0B5B
:101A1000C394D9CF0E949F0B10931803F09219031F
:101A200000931A03EE2051F0609117037091180390
:101A30008091190390911A030E94540B0F900F90FC
:101A40000F90DF91CF911F910F91FF90EF90DF905A
:101A5000CF90BF90AF900895E7E1F3E09181282FF8
:101A60004381628188E0890F0C949B0C81E00C9487
:101A70002C0DE7E1F3E09181282F4381628188EF0B
:101A8000890F0C949B0C81E00C94390DE7E1F3E095
:101A9000628128E0620F08F46FEF282F4381818173
:101AA0000C949B0C81E00C94460DE7E1F3E062811D
:101AB00028E0621B08F460E0282F438181810C94A8
:101AC0009B0C81E00C94550DE7E1F3E0438128E0A5
:101AD000420F08F44FEF282F628181810C949B0CF8
:101AE00081E00C94640DE7E1F3E0438128E0421BC0
:101AF00008F440E0282F628181810C949B0C81E0E6
:101B00000C94730D20E00C949B0CFF920F931F9389
:101B1000CF93DF93EC01F12C0FEF10E06091020105
:101B2000F616F0F48091DA012F2D30E0280F311DE8
:101B3000C901880F991F280F391F245E3C4F70E0A0
:101B4000C8010E94F925962F8C8140911A0360915B
:101B50001903F99E800D11240E942F0BF394DECF00
:101B60000E949F0B9A818C8190FF02C08F5F01C001
:101B700081508C83DF91CF911F910F91FF90089539
:101B8000BF92CF92DF92EF92FF920F931F93CF936A
:101B9000DF93FC01828180FF02C00FEF01C001E0F2
:101BA00010E080910201181708F040C08091DA011E
:101BB000C12ED12CE601C80FD11DCE01880F991F6F
:101BC000C80FD91FC45EDC4F198218821A8234E014
:101BD000E32EF12CB12C8091D9018B0D813214F0C0
:101BE0008F7105C087FF03C090910201890F082EF5
:101BF000000C990BC816D90691F480911A038E9D9A
:101C0000A0018F9D500D11245595479555954795E9
:101C10009E0160911903809118030E942F0BB00E52
:101C2000F1E0EF1AF108B9F61F5FBBCF0E949F0BDE
:101C30008091D901013031F4811102C080910201FB
:101C4000815007C090E001966091020170E00E940F
:101C5000F9258093D901DF91CF911F910F91FF90CA
:101C6000EF90DF90CF90BF900895CF938091DA01ED
:101C700090910301891770F4E82FF0E09F01220F83
:101C8000331FE20FF31FE45EFC4F118210821282B9
:101C90008F5FF0CFC0E060910201C617C0F5EC2F56
:101CA000F0E070E0CF010E94F9252091DA01820F67
:101CB0002091D801022E000C330B90E0E217F307BD
:101CC000CCF020910101022E000C330B2E173F07A0
:101CD0008CF09C01220F331F820F931F9C01245E06
:101CE0003C4F40911A0360911903809118030E94A0
:101CF0002F0B0BC0FC01EE0FFF1F8E0F9F1FFC016F
:101D0000E45EFC4F118210821282CF5FC4CF0E942A
:101D10009F0B209100018091D801820F8093D80100
:101D200090910101920F9093010119165CF4082E15
:101D3000000C990B4091020150E041505109841769
:101D400095071CF0219520930001CF9108950F93E2
:101D50001F93CF93DF938C01FC01848195810196C1
:101D60008170992795838483C0E0D5E58091020135
:101D7000C81700F58091DA012C2F30E0280F311DB3
:101D8000C901880F991F280F391F245E3C4F4C2F23
:101D90004695F80184819581840F911D8170409151
:101DA0001A03609119038D9F802D11240E942F0B1F
:101DB000CF5FDCCFDF91CF911F910F910C949F0BE0
:101DC0000F931F93CF93DF93EC0100E010E080911D
:101DD0000201282F30E00217130724F59091DA0151
:101DE0009801290F311DA901440F551F240F351FDC
:101DF000245E3C4F869590E04C81081719071CF42F
:101E0000442331F002C0411103C040911A0301C0C4
:101E100040E060911903809118030E942F0B0F5F1F
:101E20001F4FD5CF0E949F0B8C8190E0019681704F
:101E300099278C83DF91CF911F910F910895E7E14E
:101E4000F3E080818E7F80836081718182819381C4
:101E50000E94540B1092E4012FEF80E792E0215092
:101E600080409040E1F700C000000C949F0B60910F
:101E70001703669570E04BE050E085E091E00E942A
:101E80001326892B19F481E08093E4010E940D2030
:101E90009093DD018093DC0108959091170390FFEA
:101EA00035C09170811102C0926006C0853210F079
:101EB000986402C0880F982B90931703662351F003
:101EC00060911703709118038091190390911A0380
:101ED0000E94540B60911703669570E04BE050E050
:101EE00085E091E00E941326892B19F01092E401FD
:101EF00002C00E94370F81E08093DF0140911A03F6
:101F000060911903809118030C94820D0895682F35
:101F100090911703969581E0890F853208F081E052
:101F20000C944D0F81E00C94870F682F909117034C
:101F300096958FEF890F09F484E20C944D0F81E0A0
:101F40000C94950F61E00C944D0FE7E1F3E0808174
:101F50008160808386950C94A20F8091170380FD89
:101F60000C941F0F0C94A50F60E00C944D0F809102
:101F7000E20181112EC00E94101F811104C00E9435
:101F8000B01F0E94660B0E94500B60931703709362
:101F900018038093190390931A036E7F61F40E94D3
:101FA000660B0E94500B6093170370931803809385
:101FB000190390931A030E943D0B1092E401809143
:101FC000170380FF03C086950E94B40F81E08093C1
:101FD000E20108950F931F93CF93DF938091E40163
:101FE000882309F48CC08091E301E0911703E69502
:101FF000E81BE093DE01823049F4F0E0E258FD4F47
:10200000E491CE2FD0E007E31CE049C0863049F4CC
:10201000F0E0E558FD4FE491CE2FD0E00BE41CE05A
:102020003EC0893051F4E695F0E0E858FD4FE49168
:10203000CE2FD0E005E81DE032C08F3051F4E69598
:10204000F0E0EB58FD4FE491CE2FD0E000EC1DE026
:1020500026C0853149F4F0E0EE58FD4FE491CE2FD3
:10206000D0E005E31EE01BC0883181F0833239F4F3
:10207000E0E7F2E0C591D4910BE51CE010C084329A
:1020800051F4C4EFD1E000EE1EE009C0C8EED3E089
:1020900007EA1EE004C0C0EDD7E00EE21BE080912D
:1020A000DF01882389F01092DF010E940D209E013C
:1020B00020953095820F931F9093DD018093DC0172
:1020C0001092E1011092E0018091DC019091DD011C
:1020D0000E9419208C179D0790F0E091DC01F0918F
:1020E000DD01CE0FDF1FD093DD01C093DC018CED4D
:1020F00091E0F801DF91CF911F910F910994DF9149
:10210000CF911F910F910895882311F0FA0101C01A
:10211000FB010994CF93DF93C82FD62F0E94750B34
:102120008C1740F00E94750B8D1720F4DF91CF9132
:102130000C94920F8C2FDF91CF910C94A20F0F93E0
:102140001F93CF93FB01C281CC2309F463C08C01A0
:102150000E94591E8272F801E25CFC45E431F105EF
:1021600008F059C0EC5CFF4F0C940D260E94AD0F97
:1021700006C04FE95FE062E97FE00E948410C0E0A2
:102180004AC042E95FE06FE97FE0F7CF43E45DE0FA
:1021900066E37DE0F2CF46E35DE063E47DE0EDCF12
:1021A00041E65DE062E57DE0E8CF42E55DE061E6C5
:1021B0007DE0E3CF4FE75DE060E77DE0DECF40E725
:1021C0005DE06FE77DE0D9CF4EE85BE06DE77BE057
:1021D000D4CF4DE75BE06EE87BE0CFCF81E017C066
:1021E00065E082E010C068E086E00DC06EE089E046
:1021F0000AC064E18FE007C067E185E104C088E1BF
:1022000006C062E289E10E948A10B9CF83E20E948F
:10221000A20FB5CFC1E08C2FCF911F910F910895E0
:1022200025B1342F3095232335B1432B3FB7F89494
:10223000FC01680F791FE617F70789F0819198E094
:1022400045B9000000C087FF25B9880F000000C015
:1022500000C000C025B900C09A9591F7ECCF3FBFF0
:10226000089524B1242B24B99B01220F331F620F40
:10227000731F0E94101187EC90E00197F1F700C0E6
:102280000000089542E00C9431110F931F93CF93F7
:10229000DF93C62FD42F122FFC0182818823C9F02F
:1022A0006093E7010E940D209093E6018093E50181
:1022B00080E28C0F883008F057C0C77081E001C001
:1022C000880FCA95EAF7DF91CF911F910F910C9477
:1022D000CD158091E701681330C08091E5019091A0
:1022E000E6010E941920883C910538F500E20D0FA7
:1022F000CD17B9F080E28C0F883040F4C77081E0D0
:1023000001C0880FCA95EAF70E94D415083028F555
:1023100081E09D2F977001C0880F9A95EAF70E947F
:10232000CD15812F0E94BA150830F0F4D77081E0E6
:1023300001C0880FDA95EAF70AC080E28C0F883076
:1023400098F4C77081E001C0880FCA95EAF7DF9161
:10235000CF911F910F910C94D415812FDF91CF91C4
:102360001F910F910C94BA15DF91CF911F910F918E
:1023700008959C01CB01233F4CE53407F9F078F434
:10238000283DFCE53F07B9F0293D4CE5340711F144
:10239000273D3C4531F526E241EE61EE1EC0253F6A
:1023A000FCE53F0799F070F0263F3C45D1F427E269
:1023B00045EE66EE12C027E245EE0EC026E241EE83
:1023C00060EE0BC027E245EE64EE07C026E241EE68
:1023D00062EE03C028E241E065EE0E94451180E014
:1023E0000895FC018281882319F01092E701089575
:1023F00081E00895CF93DF93EC01FB018281882374
:1024000009F41FC1C230FCE5DF0708F41BC1C63167
:102410009CE5D90738F09E012A5F3C4529303105FB
:1024200008F010C10E94231F9093830380938203BE
:10243000C031ECE5DE0709F4C3C008F041C0C83084
:102440008CE5D80709F49AC0F0F4C430ECE5DE0757
:1024500009F487C068F4C2308CE5D80709F477C066
:10246000C330DC4509F0E3C080918203826076C00E
:10247000C630ECE5DE0709F46EC008F07BC0809141
:10248000820388606BC0CC308CE5D80709F485C026
:1024900068F4CA30ECE5DE0709F474C008F079C0CE
:1024A0000E94761880918203806858C0CE308CE5F7
:1024B000D80709F476C008F07FC0809182038BC0F2
:1024C000CB3FECE5DE0709F44FC018F5C3318CE5CE
:1024D000D80709F47DC078F4C131ECE5DE0709F4D2
:1024E00073C0C231DC4509F0A2C00E947618809109
:1024F00082038F7733C0C5318CE5D80709F472C0E9
:1025000008F486C0CA3FDC4509F091C0809183037E
:102510003EC0CF3FFCE5DF0709F45FC058F4CD3F74
:102520009CE5D90709F444C008F43FC080918303B7
:1025300082602DC0C130FDE5DF0709F475C008F4E5
:102540005DC0C230DD4509F072C080E06EC0809190
:102550008203816003C08091820380618093820343
:1025600066C08091820311C0809183038260809352
:1025700083035DC0809182038062F0CF80918203EB
:102580008064ECCF8091820388608460E7CF8160B3
:10259000EECF809182038E7FE1CF809182038D7F89
:1025A000DDCF80918203877FD9CF8091830318C0CC
:1025B000809183038D7FDBCF809182038F7ECECF8E
:1025C000809182038F7DCACF809182038F7BC6CF9B
:1025D00080918203877F8B7FC1CF809183038D7F22
:1025E0008E7FC5CF8091820382FB222720F991E064
:1025F000922790FB82F990FB83F9B0CF80918303FF
:10260000982F909591708E7F892B90FB81F9AFCF99
:102610000E9476188091820387FB222720F991E09F
:10262000922790FB87F99ACF81E00E94B21F809198
:102630008203909183030E94341F0E94761880E0E9
:1026400001C081E0DF91CF910895CF93DF93863170
:102650009C4541F5EB010E94591E982F8A812091DB
:10266000100130911101882379F09A7A81E009F400
:1026700080E08093E801911102C069E201C065E346
:10268000C9010E94F91F0AC08091E801811102C0AE
:1026900069E201C065E3C9010E94FB1F0E94A71EF9
:1026A00080E001C081E0DF91CF9108959093EE0129
:1026B0008093ED010895E091ED01F091EE013097E6
:1026C00021F00190F081E02D099480E00895E091DF
:1026D000ED01F091EE01309721F00280F381E02DC1
:1026E00009940895E091ED01F091EE01309721F009
:1026F0000480F581E02D099408952091EB0130913B
:10270000EC012817390771F09093EC018093EB01ED
:10271000E091ED01F091EE01309721F00680F78114
:10272000E02D099408952091E9013091EA012817DC
:10273000390771F09093EA018093E901E091ED018E
:10274000F091EE01309721F00084F185E02D09949D
:10275000089508950C94A9130C94AA130C94A9132A
:102760000C94A9130E94AE130C94AC1381E008954D
:102770000E9404200E9494040E947E200E94B70FB1
:102780000C94B0137F928F929F92AF92BF92CF9290
:10279000DF92EF92FF920F931F93CF93DF93CDB70A
:1027A000DEB72A970FB6F894DEBF0FBECDBF0E94EA
:1027B00007050E94B613811111C08FEF89838A83A8
:1027C0001B820E940D208160782F9D838C8349811C
:1027D0005A816B818D810E9474144FC040EFA42EEA
:1027E00041E0B42E00E010E0702E802F0E948A0499
:1027F0006C01F501819091905F01882699268114E2
:10280000910431F40F5F1F4F0530110569F7D5CFE3
:102810008091750281FD0E94930480E0EE24E39490
:10282000F12C94012E213F21232B09F18E837F82ED
:10283000CE20DF2081E0CD2809F480E088870E9447
:102840000D208160782F9A8789874E815F81688506
:102850008A850E947414000F111FF801E051FE4F89
:1028600080819181E826F926F182E08206C08F5F9F
:10287000EE0CFF1C8E30A9F6C5CF0E94EA0F0E9415
:1028800010220E945B139091EF018917C9F00E94FA
:102890005B138093EF012A960FB6F894DEBF0FBE4C
:1028A000CDBFDF91CF911F910F91FF90EF90DF90FF
:1028B000CF90BF90AF909F908F907F900C94FF0728
:1028C0002A960FB6F894DEBF0FBECDBFDF91CF9131
:1028D0001F910F91FF90EF90DF90CF90BF90AF903E
:1028E0009F908F907F900895CF93DF93CDB7DEB701
:1028F0002B970FB6F894DEBF0FBECDBF4F8358871E
:1029000069877A878B87DE01119686E0FD01119237
:102910008A95E9F785E0FE01379601900D928A9538
:10292000E1F749815A816B817C818D819E810E9472
:10293000461B2B960FB6F894DEBF0FBECDBFDF91BE
:10294000CF910895FC01808191810E941A1E089503
:10295000CF93882309F4A4C0C82F8238C1F40E9401
:102960005B1381FD9DC069E380911001909111017D
:102970000E94F91F0E94A71E2FEF81EE94E02150C4
:1029800080409040E1F700C0000069E319C083383F
:1029900001F50E945B1380FD83C063E58091100107
:1029A000909111010E94F91F0E94A71E2FEF81EE46
:1029B00094E0215080409040E1F700C0000063E5C2
:1029C00080911001909111010E94FB1FCF910C94F6
:1029D000A71E8438C1F40E945B1382FD61C067E4C6
:1029E00080911001909111010E94F91F0E94A71E71
:1029F0002FEF81EE94E0215080409040E1F700C03D
:102A0000000067E4DDCF8CEF8C0F813AD0F46C2F9F
:102A100080911001909111010E94C31F882349F0F9
:102A20006C2F80911001909111010E94FB1F0E9458
:102A3000A71E6C2F80911001909111010E94F91F27
:102A4000C5CF80E28C0F883048F4C77081E001C0A8
:102A5000880FCA95EAF70E945C1EB8CFEBE5EC0F31
:102A6000E33040F4F0E0E354FE4F808190E0CF91FA
:102A70000C947D13E8E5EC0FE73150F4F0E0EE0F35
:102A8000FF1FE157FE4F80819181CF910C949313EA
:102A9000C03F30F08C2F0E941821CF910C9405225A
:102AA000CF910895882309F464C0823879F40E9494
:102AB0005B1381FF5EC069E3809110019091110169
:102AC0000E94F91F0E94A71E69E310C08338B1F469
:102AD0000E945B1380FF4DC063E5809110019091CF
:102AE00011010E94F91F0E94A71E63E58091100149
:102AF000909111010E94FB1F0C94A71E843879F459
:102B00000E945B1382FF35C067E4809110019091B1
:102B100011010E94F91F0E94A71E67E4E7CF9CEFF6
:102B2000980F913A10F4682FE1CF90E2980F983007
:102B300050F4877091E001C0990F8A95EAF7892FC8
:102B40000E94621ED9CF9BE5980F933020F480E05D
:102B500090E00C947D1398E5980F973120F480E075
:102B600090E00C949313803F20F00E9480210C94FD
:102B700005220895CF93C82F0E94A814C93349F4A1
:102B80002FEF87EE93E0215080409040E1F700C0A6
:102B900000008C2FCF910C945215882321F00E94B5
:102BA0005C1E0C94A71E0895882321F00E94621ECB
:102BB0000C94A71E0895CF92DF92EF92FF920F938D
:102BC0001F93CF93DF937C01062FC72FFC01158144
:102BD00012951F70D281D1110E94791E0E94521E3F
:102BE000882379F0DD2369F080E2800F883048F097
:102BF00082E00E94F11E0E94521E91E0D82ED9263A
:102C000001C0D12CCC2EC2948FE0C8228C2D90E034
:102C1000FC01E85BFF4F0C940D268C2F807FCF705A
:102C2000882311F0C295C07FDD2399F0CC2309F4ED
:102C3000C4C180E2800F883010F0011104C08C2FD5
:102C40000E945C1E03C08C2F0E946C1E0E94A71E57
:102C5000B4C1802F0E945215CC2309F4D3C180E265
:102C6000800F883010F0011104C08C2F0E94621E6A
:102C700003C08C2F0E94721E0E94A71EC3C18C2FFE
:102C8000807FCF70803211F0C295C07F002319F091
:102C90000130C9F022C0DD2371F0112341F0113061
:102CA00031F40E948C1E8C2B0E94941EABC10E949A
:102CB0008C1E8C2B1DC0112319F0113009F4A2C1F8
:102CC0000E949D1E25C0DD2321F0163008F09AC118
:102CD0000EC0153008F096C11BC0DD2361F0112332
:102CE00031F0F701858180FF68C18F7085838C2F5B
:102CF0000E94CD1587C1112359F0093309F06EC127
:102D0000FFEF27EE83E0F15020408040E1F764C1FF
:102D10008C2F0E94D41576C18C2F86958695837052
:102D200019F0813061F06EC1DD2321F0802F9C2FDE
:102D3000937002C080E090E00E947D136BC1DD23A0
:102D400021F0802F9C2F937002C080E090E00E94C1
:102D5000931360C1DD23F9F0053F51F0063F71F098
:102D6000043FA9F480917C0390917D0381600BC0A6
:102D700080917C0390917D03826005C080917C03EB
:102D800090917D03846090937D0380937C03802FDA
:102D90000E9418211EC0053F51F0063F71F0043F0C
:102DA000A9F480917C0390917D038E7F0BC080916C
:102DB0007C0390917D038D7F05C080917C03909171
:102DC0007D038B7F90937D0380937C03802F0E94F3
:102DD00080210E9405221EC18C2F837009F045C0FE
:102DE000D11114C1402F429546954770440F440FAE
:102DF000602F6F70862F90E0A0E0B0E0042E04C03A
:102E0000880F991FAA1FBB1F0A94D2F704FF10C096
:102E10000FE010E020E030E004C0000F111F221F7F
:102E2000331F4A95D2F7009510952095309503C031
:102E300000E010E09801C695C695C370BC01CD01B5
:102E4000602B712B822B932BC23049F058F4C13088
:102E500019F00E94971CDAC00E94851CD7C00E94FE
:102E6000A91CD4C00E94831CD1C0DD2319F08C2F73
:102E7000817001C08695882309F4C8C0402F42950F
:102E800046954770440F440F602F6F70862F90E077
:102E9000A0E0B0E0042E04C0880F991FAA1FBB1F3A
:102EA0000A94D2F704FF10C00FE010E020E030E0F9
:102EB00004C0000F111F221F331F4A95D2F700953F
:102EC00010952095309503C000E010E09801C6955C
:102ED000C695C370BC01CD01602B712B822B932B47
:102EE000C23049F058F4C13019F00E945C1D8EC008
:102EF0000E944A1D8BC00E946E1D88C00E94BD1C8E
:102F000085C0CF70DD2339F08C2F0E94E31C802F09
:102F10000E94CD157BC0802F0E94D4158C2F0E945B
:102F2000041D74C0023F01F128F4003F41F0013F4D
:102F3000A1F03FC0033FF9F0043F39F13AC0DD236F
:102F400041F0153008F05EC08C2F8F710E94291D52
:102F500059C0163008F056C0F7CFDD2339F08C2F5A
:102F60008F710E94E31C4EC0DD23C9F38C2F8F713B
:102F70000E94041D47C0DD2329F08C2F8F710E9411
:102F8000CE1C40C00E94C91C3DC0DD2349F0CF715A
:102F90008C2F0E94E31C63E08C2F0E94DC1E32C049
:102FA00081E00E94F11E123068F182E00E94F11E61
:102FB00029C0DD2331F0112391F2802F0E94A81443
:102FC00021C0112399F2093349F49FEFE7EEF3E0B2
:102FD0009150E040F040E1F700C00000802F0E94D7
:102FE000521510C04C2F4F70602FC7010E945A0815
:102FF0000E94F41B0FC04C2F4F70602FC7010E941E
:103000005D0808C088EF8C0D843020F40E945B13AB
:103010000E94FF07DD20C9F00E944E1E80FD15C0F2
:10302000F70112820E94481E0E94E31CC7010E9401
:103030002E180E94481EDF91CF911F910F91FF9093
:10304000EF90DF90CF900C94041DDF91CF911F91F2
:103050000F91FF90EF90DF90CF9008950F931F9303
:10306000CF93DF93EC01988189812B813C81232BC5
:1030700031F08F3F31F481E09F3F19F403C081E0CC
:1030800001C080E080FD13C0CE010E941808882393
:1030900071F0688179818A810E94251E8C010E94CD
:1030A000801D0E94711CB801CE010E94DB15DF91CA
:1030B000CF911F910F9108950E94791E0E94891E41
:1030C0000E94A71E0E942E230E94052280E090E00D
:1030D0000E947D1380E090E00C9493138091100186
:1030E000909111010E94FD1F0C945C180E94691EB2
:1030F0000C946E18E92FE295EF704E2F50E0FA0114
:103100003297EE30F105B0F4E85AFF4F0C940D26DB
:10311000803F91F018F4883E68F40EC0843F51F46B
:103120000BC0883E48F0813F29F406C093FB8827F6
:1031300080F9089580E0089581E008950E941A1EA4
:103140000E947A180895CF93DF9300D000D01F9289
:10315000CDB7DEB70F900F900F900F900F90DF91CB
:10316000CF910895CF93DF9300D000D000D0CDB79A
:10317000DEB726960FB6F894DEBF0FBECDBFDF9147
:10318000CF9108951F93CF93DF93C091FB0116E079
:103190008091FC01C81799F0D0E01C9FF0011D9FA1
:1031A000F00D1124E350FE4F408151816281738103
:1031B000848195810E94B2182196C770E9CFDF9172
:1031C000CF911F91089540912D0250912E02609150
:1031D0002F027091300280913102909132020C9452
:1031E000B218CF938091320282958F7009F05FC040
:1031F00080912F02882309F45AC08091FB01B0917D
:10320000FC0170912D02A0912E024091300250914C
:10321000310291E07F3F09F090E0692FC6E08B1703
:1032200009F445C04115510521F0AF3F21F020E0E0
:1032300003C021E001C0262F90E020FD35C0C89FCB
:10324000F001C99FF00D1124E350FE4F21812A1394
:103250002BC02081271328C02281211125C0238162
:1032600034812417350710F421503109241B350B04
:10327000283C3105C8F4209132022F702061209340
:10328000320226E0289FF001299FF00D1124EE5F05
:10329000FD4F80818F70806180838DE292E00E947B
:1032A0002E18CF910C94C21801968770B8CFCF9189
:1032B0000895AF92BF92CF92DF92EF92FF920F9359
:1032C0001F93CF93DF93CDB7DEB761970FB6F89416
:1032D000DEBF0FBECDBF8C0185E0F801DE011D967B
:1032E00001900D928A95E1F7D8014C9111965C916D
:1032F00011971296EC9030912D0260912E028091E0
:10330000300290913102009731F06F3F31F421E0AB
:103310003F3F19F403C021E001C020E0B22FB1709B
:10332000BB2E20FD60C1F801C380D480A0902F0285
:10333000AA2009F4EEC020913202C816D90628F05E
:10334000D601A81BB90BCD0104C0809590958C0DBA
:103350009D1DFF24F394883C910580F0F12C207F83
:1033600009F09CC07C2DD98AC88A6E2D89890E945B
:10337000A3188DE292E00E942E182DC1822F807F2B
:1033800009F054C0561314C0431312C0FE2CE110B0
:103390000FC02F702061209332020E94E3188DE24B
:1033A00092E00E942E1880913202F80185835CC160
:1033B000CD2831F05F3F31F481E04F3F19F403C075
:1033C00081E001C080E080FD03C081E08E2502C065
:1033D00080E090E0F82FF170FF2E80FF1CC08091FC
:1033E000FB012091FC0136E0821709F41AC190E03C
:1033F000389FF001399FF00D1124E350FE4F618199
:10340000561306C06081461303C06281E61203C0F2
:1034100001968770E9CFFE2CEE2009F425C180913A
:103420003202816080933202F12C1EC1561309C012
:10343000431307C0E11005C080913202F801858373
:10344000A4C04D875E878D859E850E949E18882327
:1034500079F1EE2069F120913202822F82958F70EE
:1034600090E0029774F080912D0290912E0298873F
:103470008F831986DB86CA862C87CE0107960E9429
:103480002E1886E0F801ADE2B2E001900D928A9527
:10349000E1F70E94F1180E94E3180DC0561771F071
:1034A0004D875E878D859E850E949E1881111AC06A
:1034B000C8010E942E18FF24F394D6C04313F0CF06
:1034C000E110EECF80913202F8018583C8010E949D
:1034D0002E1886E0EDE2F2E0DF011D928A95E9F711
:1034E000FA2CC2C0EE2021F320913202822F829565
:1034F0008F7090E002972CF280912D0290912E0215
:103500009A8389831B82DD82CC822E83CE01019631
:10351000B6CFC816D90628F0F601E81BF90BCF0183
:1035200004C0809590958C0D9D1D883C910548F0B8
:10353000F12C7C2DD98AC88A6E2D89890E94A31806
:103540004AC0FE2CEE2009F4B3CF561333C0431308
:1035500031C02091320220FD24C0822F82958F70CD
:10356000482F50E041155105E1F0D80115962C93F4
:1035700015974F30510549F08F5F982F9295907FA6
:10358000822F8F70892B15968C93C8010E942E185C
:1035900086E0F801ADE2B2E001900D928A95E1F784
:1035A0003DC086E0F801ADE2B2E001900D928A954F
:1035B000E1F75AC04D875E878D859E850E949E18D3
:1035C00081115FCF80913202816080933202C80105
:1035D0000E942E1849C0EDE2F2E086E0DF011D9264
:1035E0008A95E9F71BC0EE2009F462CF4D875E870C
:1035F0008D859E850E949E18F82E882309F458CF49
:1036000086E0F801ADE2B2E001900D928A95E1F713
:103610008DE292E00E94A2140E94F1180E94E31829
:1036200023C04D875E878D859E850E941A1E292F97
:1036300022952F70223028F49F7039F0811105C037
:103640000BC0243028F49F7049F4805E883020F04D
:10365000C8010E942E18BF2CFB2C06C0D80115965D
:103660009C91907F91F7F8CF8F2D61960FB6F894CB
:10367000DEBF0FBECDBFDF91CF911F910F91FF90A5
:10368000EF90DF90CF90BF90AF9008951F93CF93AE
:10369000DF93CDB7DEB72C970FB6F894DEBF0FBE21
:1036A000CDBF4F83588769877A878B879C87CE01E8
:1036B00007960E9459198823D1F09F8188852A8511
:1036C0003B85232B31F08F3F31F481E09F3F19F48C
:1036D00003C081E001C080E080FD47C04F81588574
:1036E00069857A858B859C850E94B2183EC086E0EC
:1036F000FE013796DE01119601900D928A95E1F751
:10370000FF81E8856A857B856115710531F0EF3FA2
:1037100031F481E0FF3F19F403C081E001C080E093
:1037200080FD23C02091FC0130E0C9010196877023
:1037300099274091FB0150E084179507F1F1F98337
:10374000EA837D836C8396E0929FD001939FB00DB6
:103750001124A350BE4FFE01319601900D929A950F
:10376000E1F78093FC010E94C21816E08091FB01F2
:103770009091FC01891771F1189FC00111248350A9
:103780009E4F0E945919882329F1E091FB011E9F49
:10379000F0011124E350FE4F408151816281738119
:1037A000848195810E94B2188091FB0190E001967E
:1037B000877099278093FB01D9CF0E9476181092C9
:1037C000FC011092FB01EDE2F2E086E0DF011D92C8
:1037D0008A95E9F72C960FB6F894DEBF0FBECDBFE1
:1037E000DF91CF911F910895EF92FF920F931F9356
:1037F000CF93DF938C01892B09F46CC0F12CEE245C
:10380000E394E8012196F8018491843740F48430F0
:1038100008F051C0813081F0823019F15BC08537EA
:1038200009F444C0A8F19CE7980F903708F052C003
:103830008F770E94521541C00E5F1F4FFE01849189
:1038400090E2980F983050F48770FE2D01C0FF0F62
:103850008A95EAF78F2F0E947C1E14C00E94A8143C
:103860002DC00E5F1F4FFE01849190E2980F98309B
:1038700060F48770FE2D01C0FF0F8A95EAF78F2F45
:103880000E94821E0E94A71E19C00E94521516C0D7
:103890000E5F1F4FFE01C491CC2381F08FE99FE0A2
:1038A0000197F1F700C00000C150F6CF0E5F1F4F27
:1038B000FE01F49003C00E94A8148E018F2D88236E
:1038C00009F49FCFEFE9FFE03197F1F700C0000066
:1038D0008150F5CFDF91CF911F910F91FF90EF9025
:1038E0000895089508950C94721C0C94731C0E9402
:1038F000751C6093640270936502809366029093D6
:1039000067020C945C180C94771C0F931F93009122
:103910006402109165022091660230916702602B6B
:10392000712B822B932B1F910F910C94771C0F936B
:103930001F930091640210916502209166023091FC
:10394000670260237123822393231F910F910C94AC
:10395000771C0F931F9300916402109165022091D0
:1039600066023091670260277127822793271F9193
:103970000F910C94771C0C94721C0E94BB1C6093DA
:1039800060027093610280936202909363020C94D0
:103990005C1860E070E0CB010C94BD1C0F931F938A
:1039A00041E050E060E070E08A019B0104C0000F3C
:1039B000111F221F331F8A95D2F7C901B8011F9129
:1039C0000F910C94BD1C0F931F9341E050E060E0F9
:1039D00070E004C0440F551F661F771F8A95D2F709
:1039E0008091600290916102A0916202B0916302A5
:1039F0008A019B01082B192B2A2B3B2BC901B801EB
:103A00001F910F910C94BD1C0F931F9341E050E048
:103A100060E070E004C0440F551F661F771F8A9551
:103A2000D2F7409550956095709580916002909185
:103A30006102A0916202B09163028A019B01082396
:103A400019232A233B23C901B8011F910F910C941C
:103A5000BD1C0F931F9341E050E060E070E004C094
:103A6000440F551F661F771F8A95D2F78091600219
:103A700090916102A0916202B09163028A019B0160
:103A8000082719272A273B27C901B8011F910F9141
:103A90000C94BD1C0F931F93009160021091610262
:103AA0002091620230916302602B712B822B932B49
:103AB0001F910F910C94BD1C0F931F9300916002F6
:103AC00010916102209162023091630260237123A0
:103AD000822393231F910F910C94BD1C0F931F936E
:103AE00000916002109161022091620230916302A4
:103AF00060277127822793271F910F910C94BD1C7B
:103B000008952EE0929F800D1124E82FE695E6950A
:103B1000E695877051E001C0550F8A95EAF785E078
:103B2000E89FF0011124ED5CFD4F20E030E070E0F3
:103B30004081CB01022E02C0969587950A94E2F748
:103B40008170819584278523842781932F5F3F4F40
:103B50002530310569F708952EE0929F800D1124DC
:103B6000682F669566956695982F977085E0689F93
:103B7000B001112440E050E080E0FB01E40FF51FAC
:103B8000ED5CFD4F208130E0092E02C0369527956F
:103B90000A94E2F721703327042E01C0220F0A9401
:103BA000EAF7822B4F5F5F4F4530510531F708959B
:103BB000BF92CF92DF92EF92FF920F931F93CF931A
:103BC000DF938C01C0906002D0906102E0906202AD
:103BD000F09063028091640290916502A091660268
:103BE000B0916702C82AD92AEA2AFB2ACFE1D0E09D
:103BF000D701C6010C2E04C0B695A7959795879559
:103C00000A94D2F780FD04C0219790F7B12C07C029
:103C1000BC2EB8018C2F0E9479080197A9F38B2D37
:103C2000DF91CF911F910F91FF90EF90DF90CF9098
:103C3000BF900895CF93DF93EC010E94D81DBE0181
:103C40000E947908DF91CF9108951F93CF93DF935E
:103C5000EB019091FA01992321F0CB010E941A1EE9
:103C600013C0882349F0CB010E94D81D182F682F5C
:103C7000CE010E94811D04C0CB010E94AC1D182FF3
:103C8000BE01812F0E947908DF91CF911F91089585
:103C90008091680285958595859508958091680243
:103CA0008770089590916802977081E009F480E030
:103CB000089580917402089590917402892B8093E5
:103CC0007402089580959091740289238093740200
:103CD000089510927402089590917302892B809335
:103CE00073020895809590917302892380937302E3
:103CF000089510927302089590917202892B809317
:103D000072020895809590917202892380937202C5
:103D1000089510927202089580916902089508959D
:103D20000C948F1E0C94901E90916902981721F0AC
:103D3000809369020C94921E0895809169028823F1
:103D400029F01092690280E00C94921E0895E0918F
:103D50001001F0911101809174028083E0911001B3
:103D6000F0911101908180917302892B8083E09101
:103D70001001F0911101908180917202892B808352
:103D800080916902882381F0E0911001F091110186
:103D90009081892B808380911001909111010E9464
:103DA000B71F81110E949D1E8091100190911101F9
:103DB0000C9467130C948F1E98E0899F9001112436
:103DC000262B209368020E94E31C8091680285954F
:103DD000859585950C94DA1E1092680280E00C940B
:103DE000DA1E209168028095822380936802982FC2
:103DF000977079F430E0482F082E000C550B2417EB
:103E0000350739F08595859585950E94041D0C949C
:103E1000EC1E08956FEF7FEF80E090E00C94522647
:103E200080E090E00E942E2621E08C3E9E4F09F01B
:103E300020E0822F089582E090E00C94202683E019
:103E400090E00C942026CF9384E090E00E942026FE
:103E5000C82F81E290E00E9420262C2F30E0A9019B
:103E6000582BCA01CF910895CF93C92F682F84E0B2
:103E700090E00E9434266C2F81E290E0CF910C9468
:103E80003426AB01BC018FE090E00C944626AB01D8
:103E9000BC0183E190E00C94462660E070E0CB0129
:103EA0000C94471F60E070E0CB010E94411F0C940E
:103EB0004D1F6CEE7EEF80E090E00E94522660E0A5
:103EC00082E090E00E94342660E083E090E00E946F
:103ED00034261092640210926502109266021092CB
:103EE000670260E084E090E00E94342660E081E2B6
:103EF00090E00E94342660E085E090E00E94342645
:103F000060E086E090E00E9434266FEF87E090E06A
:103F10000E94342640E050E0BA0188E090E00E9420
:103F2000462660E08DE090E00E94342640E050E0BC
:103F3000BA0188E190E00E94462660E087E190E0C7
:103F40000E94342640E050E0BA018CE190E00E94EB
:103F5000462660E080E290E00E9434260C94521FD6
:103F60000C94591F682F8EE090E00C943426FC01CD
:103F7000329697E080E0915029F021912223D9F3E5
:103F80008F5FF9CF0895662349F0FC0132960896B9
:103F90002191621729F0E817F907D1F780E0089519
:103FA00081E008959C01FC0132969FEF80E04191F1
:103FB000461789F09F3F19F4411101C0982F8F5F78
:103FC0008630A9F79F3F39F0F901E90FF11D97FD00
:103FD000FA956283089508959C012A5F3F4FFC0182
:103FE0004281461301C01282019682179307B9F7E6
:103FF00008950C94D21F0C94EC1F029626E0FC014D
:1040000011922A95E9F7089582E084BD93E095BD69
:104010009AEF97BD80936E0008952FB7F894809122
:104020007E0390917F03A0918003B09181032FBF05
:104030000895CF92DF92EF92FF920F931F932FB7C5
:10404000F89440917E0350917F03609180037091BA
:1040500081032FBF6A017B01EE24FF248C0120E045
:1040600030E0C016D106E206F30610F441505109C3
:104070009A01281B390BC9011F910F91FF90EF90F6
:10408000DF90CF90089578941F920F920FB60F9201
:1040900011248F939F93AF93BF9380917E03909150
:1040A0007F03A0918003B09181030196A11DB11DF2
:1040B00080937E0390937F03A0938003B09381034A
:1040C000BF91AF919F918F910F900FBE0F901F9056
:1040D000189598E088E10FB6F894A8958093600051
:1040E0000FBE90936000A895F894D8E0CEEF28E337
:1040F000299320E0299314BEFFCF08950E94101F3A
:10410000811102C00E94B01F0E941B1F8093750284
:104110000E94231F90938303809382030E941F1F9A
:10412000682F70E080E090E00C94831C80917D0209
:1041300080FF0BC06091170185E0689FB0011124DA
:1041400075956795759567952BC081FF09C060913E
:10415000170185E0689FB00111247595679520C00F
:1041600082FF07C06091170185E0689FB0011124AC
:1041700017C090917C029923D1F060911601961797
:1041800088F72091170185E0289F90011124929FC4
:10419000A001939F500D112470E0CA010E94F925DF
:1041A0006038710540F46115710519F406C065E0C9
:1041B00070E0862F08958FE7089581E0089580913B
:1041C0007D0280FF08C06091130170E075956795CE
:1041D0007595679521C081FF06C06091130170E05D
:1041E0007595679519C082FF04C06091130170E056
:1041F00010C090917C02992399F06091120196175A
:10420000A0F780911301899FC001112470E00E94E2
:10421000F9256038710540F46115710519F406C07F
:1042200061E070E0862F08958FE7089581E008959A
:10423000803F21F40E949620819504C0813F29F49B
:104240000E949620809380020895823F21F40E946C
:104250009620819504C0833F29F40E949620809384
:104260007F020895893F19F40E94DF2005C08A3F2C
:1042700031F40E94DF2081958093810208958B3F65
:1042800021F40E94DF20819504C08C3F29F40E9414
:10429000DF20809382020895843F21F480917E0282
:1042A000816017C0853F21F480917E02826011C039
:1042B000863F21F480917E0284600BC0873F21F409
:1042C00080917E02886005C0883F31F480917E0233
:1042D000806180937E0208958D3F21F480917D025C
:1042E00081600BC08E3F21F480917D02826005C009
:1042F0008F3F29F480917D02846080937D02089530
:10430000803F39F48091800287FF6CC01092800258
:1043100069C0813F29F4809180021816BCF362C005
:1043200090917F02823F29F497FF5CC010927F0238
:1043300059C0833F19F41916CCF354C0893F41F496
:104340008091810218160CF04DC0109281024AC073
:104350008A3F29F48091810287FF44C0F6CF8B3FCA
:1043600039F48091820287FF3DC0109282023AC0E8
:104370008C3F29F4809182021816BCF333C0843F2D
:1043800021F480917E028E7F17C0853F21F48091B9
:104390007E028D7F11C0863F21F480917E028B7F4B
:1043A0000BC0873F21F480917E02877F05C0883F44
:1043B00031F480917E028F7E80937E0213C08D3F08
:1043C00021F480917D028E7F0BC08E3F21F480917D
:1043D0007D028D7F05C08F3F29F480917D028B7F08
:1043E00080937D0280917F0281110EC080918002B6
:1043F00081110AC080918102811106C080918202E0
:10440000811102C010927C0208958EE792E00E9412
:1044100072130E940D2090937B0280937A0208957C
:10442000CF93DF9300D000D01F92CDB7DEB785E0E9
:10443000EEE7F2E0DE01119601900D928A95E1F728
:1044400080917F02811105C080918002882309F448
:104450007AC080917802909179020E941920AC0173
:1044600090917C02992339F02091180130E02417B3
:10447000350758F068C0209119018AE0289F900103
:1044800011242417350718F05EC09F3F19F09F5F75
:1044900090937C02109281021092820280917F029E
:1044A000181624F40E94962080937F0280917F0248
:1044B00087FF05C00E949620819580937F0280919E
:1044C0008002181624F40E94962080938002809126
:1044D000800287FF05C00E9496208195809380020C
:1044E00030917F023323E1F0209180022223C1F03A
:1044F00045EB3403C0011124992319F090937F02F6
:1045000003C081E080937F0235EB2303C0011124B7
:10451000992319F09093800203C081E08093800278
:104520000E94052280917A0290917B0290937902F9
:104530008093780285E0FE013196AEE7B2E001900B
:104540000D928A95E1F780918102811105C08091D9
:104550008202882309F47AC08091760290917702D2
:104560000E941920AC0190917C02992339F020918E
:10457000140130E02417350758F068C02091150168
:104580008AE0289F900111242417350718F05EC097
:104590009F3F19F09F5F90937C0210927F021092D0
:1045A000800280918102181624F40E94DF208093FB
:1045B00081028091810287FF05C00E94DF208195E2
:1045C0008093810280918202181624F40E94DF20D9
:1045D000809382028091820287FF05C00E94DF20C3
:1045E000819580938202309181023323E1F0209102
:1045F00082022223C1F045EB3403C0011124992328
:1046000019F09093810203C081E08093810235EB21
:104610002303C0011124992319F09093820203C04F
:1046200081E0809382020E94052280917A0290911B
:104630007B02909377028093760285E0FE013196AB
:10464000AEE7B2E001900D928A95E1F70F900F90DE
:104650000F900F900F90DF91CF910895EEE7F2E069
:1046600085E0DF011D928A95E9F710927C02109295
:104670007D02089580E880936100109261000E949D
:10468000B2130E9408240E9456130E94D225539A06
:1046900080E0815041F0A895EFE9FFE03197F1F714
:1046A00000C00000F6CF539878940E94B8130E947F
:1046B000BD248091A303882329F080918F0384FD7A
:1046C0000E94C2130E94BC23F2CF8091140308956C
:1046D000CF93DF9300D01F92CDB7DEB790918502C4
:1046E000981307C020918302309184022617370760
:1046F00091F0809385027093840260938302898392
:104700007B836A838091BA0384FF05C063E0CE0196
:1047100001960E94B9240F900F900F90DF91CF91D6
:104720000895BC0184E00C946823BC0183E00C94E0
:104730006823CF93DF9300D000D000D0CDB7DEB791
:10474000FC0182E0898395E0DE01129601900D92D2
:104750009A95E1F78091BA0384FF05C066E0CE0127
:1047600001960E94B92426960FB6F894DEBF0FBEBC
:10477000CDBFDF91CF910895CF93DF93CAE0D0E012
:1047800080918F0384FF18C08091910290919202D2
:104790009817E1F028E0829FC001112468E08D564F
:1047A0009D4F0E94B5248091910290E001968F70F8
:1047B0009927809391020AC00E94BD248FE99FE04F
:1047C0000197F1F700C000002197D1F6DF91CF915A
:1047D0000895FC01A0919202B0E09D012F5F3F4F30
:1047E0002F70332780919102821771F083E0AA0F16
:1047F000BB1F8A95E1F7AD56BD4F98E001900D9231
:104800009A95E1F7209392020E94BD240C94BC2358
:104810008AE191E00895FC0180818076803281F503
:104820008181813041F489E892E090939F038093E5
:104830009E0388E00895823041F483E193E09093F1
:104840009F0380939E0381E008958A3021F4838141
:104850008093130315C0893099F482819381811567
:10486000924081F484819581892B61F481E0809369
:10487000880286819781909387028093860202C086
:1048800080E008958FEF089520918602309187028D
:10489000232B71F020918802213051F4FC0180819A
:1048A00080931403109287021092860281E008958B
:1048B0008FEF0895FC018381813261F08232D1F063
:1048C000823071F587EA94E090939F0380939E0372
:1048D0008BE308958281882329F0813009F582EDE8
:1048E00094E002C089EB94E090939F0380939E0331
:1048F00089E0089584819581009751F0019781F4B2
:1049000082EE94E090939F0380939E0381E8089544
:1049100083E695E090939F0380939E0380E408953F
:1049200080E008951F93CF93DF93162FEA0128812B
:1049300024FF05C0398128E82327298302C02AE5FE
:104940002883FC019E012E5F3F4FD901912F819159
:104950008D939150E1F7612FC9010E9455031C5FAF
:104960001883DF91CF911F9108954FE853E00C9485
:1049700092244AEB53E00C949224CF93DF936091FE
:10498000A003635067FDB7C080919D03CCE0D0E0E9
:10499000C81BD109CC55DC4F80919C038D3209F0A6
:1049A00098C0683009F0A5C083EC809384038AE541
:1049B00080932501109215038881807621F0CE0125
:1049C0000E940B2473C09A8110928D0389818111FA
:1049D00006C010928E032DE833E082E062C085307D
:1049E00019F49093A1035AC0863009F03FC08B811F
:1049F000813041F483EA95E090939F0380939E0376
:104A000082E130C0823049F1833019F5911103C041
:104A100089EE95E018C0913041F489EC95E09093CF
:104A20009F0380939E0380E21DC0923041F489EB86
:104A300095E090939F0380939E0380E113C0933091
:104A400081F485EB95E090939F0380939E0384E02F
:104A500009C0813211F0823221F4CE010E945A2421
:104A600001C080E090E49093150320C0883079F075
:104A7000893019F49093A30311C08A3059F08B3018
:104A800069F48BE4809390038093BB0307C023EA0F
:104A900033E002C02DE833E081E003C02DE833E0CD
:104AA00080E030939F0320939E0309C08F3F39F429
:104AB000988197FD8E8190E89093150307C09F81A0
:104AC000911104C09E81981708F4892F80932401C6
:104AD00010C08091150387FF0CC0CE010E944424B2
:104AE0008F3F21F48EE18093250103C08111109244
:104AF00024011092A0038091250184FF46C080917B
:104B000024018F3F09F441C0C82F893008F0C8E064
:104B10008C1B809324019091840388E889278093DB
:104B20008403CC2329F180919E0390919F032091CF
:104B3000150326FF0AC0A5E8B3E0FC012C2F349131
:104B40003D9331962150D9F708C0DC01E5E8F3E048
:104B50002C2F3D9131932150E1F72FEF2C0F30E0B6
:104B60002F5F3F4F820F931F90939F0380939E036D
:104B70006C2F85E893E00E945503CC5FCC3019F090
:104B80008FEF80932401C093250184E199B19C703B
:104B900031F48150D9F71092A10310929B03DF9159
:104BA000CF910895E9E6F0E0808182608083E89A01
:104BB000AFE8B3E08BE411968C931197EAEBF3E046
:104BC00081838AE58C9380830895AA1BBB1B51E1E6
:104BD00007C0AA1FBB1FA617B70710F0A61BB70B6D
:104BE000881F991F5A95A9F780959095BC01CD0112
:104BF000089597FB072E16F4009407D077FD09D08F
:104C00000E94E52507FC05D03EF4909581959F4FC5
:104C10000895709561957F4F0895EE0FFF1F0590E1
:104C2000F491E02D0994FC014150504030F0019086
:104C30000616D1F73197CF0108958827992708954F
:104C4000F999FECF92BD81BDF89A992780B5089554
:104C5000A6E1B0E044E050E00C945A26A8E1B0E0B0
:104C600042E050E00C945A26262FF999FECF92BDCF
:104C700081BDF89A019700B4021639F01FBA20BD21
:104C80000FB6F894FA9AF99A0FBE08950396272F53
:104C90000E9435260E943426252F0E943526242F77
:104CA0000C9435260196272F0E9435260C94342625
:104CB000DC01CB01FC01F999FECF06C0F2BDE1BDDC
:104CC000F89A319600B40D9241505040B8F70895CB
:044CD000F894FFCF86
:104CD400010220202001191A1B1C1D1E1F20212245
:104CE4006A022808641E140A321E6523E9239923E4
:104CF40095239123FF5A94949435953496943032A5
:104D0400973394949063916162E200E900EA00B5FC
:104D140000B600B700CD008301CC008A0192019453
:104D2400012102230224022502260227022A02B3B9
:104D340000B4006F0070008182830001020202024D
:104D44000606060909090909090F0F0F0F0F0F15A8
:104D5400151518191919191919191919192324E2EA
:104D640000E900EA00B500B600B700CD008301CC2D
:104D7400008A0192019401210223022402250226C1
:104D84000227022A02B300B4006F007000818283FC
:00000001FF
